:100000000C945E000C9486000C9486000C94860080
:100010000C9486000C9486000C9486000C94860048
:100020000C9486000C9486000C9486000C94860038
:100030000C9486000C9486000C9486000C94860028
:100040000C9450050C9486000C94B3030C94E503B7
:100050000C9486000C9486000C9486000C94860008
:100060000C94EE010C9486000000000800020100D0
:100070000003040700000000000000000102040863
:100080001020408001020408102001020408102002
:10009000040404040404040402020202020203032E
:1000A0000303030300000000250028002B000000CC
:1000B0000000240027002A009501150411241FBE0A
:1000C000CFEFD8E0DEBFCDBF11E0A0E0B1E0E4ECBF
:1000D000FDE002C005900D92A233B107D9F722E0EE
:1000E000A2E3B1E001C01D92AB39B207E1F710E025
:1000F000CCEBD0E004C02297FE010E94DC06C83B96
:10010000D107C9F70E9441050C94E0060C94000049
:10011000CF93DF93EC0160E071E085EF91E00E9406
:1001200096044AE050E0BE0185EF91E0DF91CF9167
:100130000C9438056BE282E391E00E947D0187E533
:100140008093BA0068E870E082E391E00E94900139
:1001500061E08DE00C94440308958091650190E086
:1001600020916601821B910908952091660180917A
:100170006501281750F4E22FF0E0E959FE4F808125
:1001800090E02F5F2093660108958FEF9FEF089511
:10019000E091660180916501E81730F4F0E0E959DB
:1001A000FE4F808190E008958FEF9FEF08950895AE
:1001B000E0913E01F0913F013097E1F0309166010E
:1001C000209165013217B0F040E0242F30E026176F
:1001D000370754F4DC01A20FB31F5C91D901A95970
:1001E000BE4F5C934F5FF1CF109266016093650143
:1001F000CB0109940895E0914001F09141013097BD
:1002000029F0109244011092430109940895CF926D
:10021000DF92EF92FF920F931F93CF93DF937C01B6
:10022000CB018A0120914201222389F0EB016B016D
:10023000C40ED51ECC15DD0569F06991D701ED918D
:10024000FC910190F081E02DC7010995F3CF642F57
:100250000E94BB01C801DF91CF911F910F91FF90C8
:10026000EF90DF90CF900895CF93DF931F92CDB79B
:10027000DEB76983209142012223D1F0209143010E
:10028000203240F021E030E0FC013383228380E023
:1002900090E015C080914401E82FF0E0EB5BFE4F49
:1002A000998190838F5F809344018093430105C0BF
:1002B00061E0CE0101960E94BB0181E090E00F90C9
:1002C000DF91CF910895FC011382128248EE53E032
:1002D00060E070E0448355836683778385E191E035
:1002E00091838083089510926601109265011092A7
:1002F0004401109243010C949901CF93DF93EC01D8
:10030000862F0E94B7018BEF90E00E94D90188ED03
:1003100090E00E94D401CE01DF91CF910C94730143
:1003200070933F0160933E01089582E391E00C9445
:1003300063011092F40181E08093F2011092F101C7
:1003400061E082E10E947D0361E083E10E947D0320
:10035000E9EBF0E080818E7F808380818D7F8083D8
:1003600088E48093B80085E48093BC000895880FEA
:100370008093BA000895613298F42091F4012430FA
:1003800089F46093A901FC018BEA91E0DC012A2F3A
:10039000281B261718F421912D93F9CF80E008959A
:1003A00081E0089582E008959093EE018093ED013D
:1003B00008959093F0018093EF01089585ED809367
:1003C000BC008091BC0084FDFCCF1092F401089524
:1003D00085EC8093BC001092F40108951F920F9257
:1003E0000FB60F9211242F933F934F935F936F9308
:1003F0007F938F939F93AF93BF93EF93FF938091DE
:10040000B900887F803609F49EC078F5883209F4F7
:100410005DC090F4803109F456C038F4882309F4A3
:10042000F5C0883009F44FC0F5C0883109F44EC0DA
:10043000803209F45FC0EEC0803409F46AC058F419
:10044000803309F457C0883309F0E4C080938701F2
:100450000E94E801DFC0803509F44FC0883509F4F7
:100460005DC0883409F0D6C0D3C0883909F4C4C04F
:10047000A8F4883709F467C038F4883609F463C0F3
:10048000803709F460C0C6C0883809F4B5C0803927
:1004900009F45FC0803809F0BDC05BC0803B09F43F
:1004A00083C038F4803A09F466C0883A09F47CC005
:1004B000B1C0803C09F4A4C0883C09F4A1C0883BC9
:1004C00009F487C0A7C08091F30110C09091CC01BE
:1004D0008091CB01981770F5E091CC0181E08E0FEF
:1004E0008093CC01F0E0E353FE4F80818093BB000A
:1004F00085EC83C0809387018BC0E091CC0181E0C3
:100500008E0F8093CC018091BB00F0E0E353FE4F4F
:1005100080839091CC018091CB016BC0E091CC01A4
:1005200081E08E0F8093CC018091BB00F0E0E3531B
:10053000FE4F80838091F20181116AC081E0809337
:10054000F10184EA5EC083E08093F4011092880197
:10055000CFCF80918801803208F04EC0E0918801B1
:1005600081E08E0F809388018091BB00F0E0E75717
:10057000FE4F8083BDCF0E94E801809188018032C8
:1005800030F4E0918801F0E0E757FE4F108260916F
:10059000880170E0E091ED01F091EE0189E891E0D1
:1005A00009951092880136C084E08093F40110927E
:1005B000AA011092A901E091EF01F091F0010995D3
:1005C0008091A901811105C081E08093A901109259
:1005D000AB01E091AA0181E08E0F8093AA01F0E0C7
:1005E000E555FE4F80818093BB009091AA018091D8
:1005F000A901981708F47CCF85E88093BC000AC055
:1006000085EC8093BC001092F40104C01092870125
:100610000E94DE01FF91EF91BF91AF919F918F9169
:100620007F916F915F914F913F912F910F900FBEEE
:100630000F901F901895833081F028F4813099F045
:100640008230A1F008958730A9F08830B9F0843065
:10065000D1F4809180008F7D03C0809180008F77DE
:1006600080938000089584B58F7702C084B58F7D14
:1006700084BD08958091B0008F7703C08091B00051
:100680008F7D8093B0000895CF93DF9390E0FC01BD
:10069000E458FF4F2491FC01E057FF4F84918823D9
:1006A00049F190E0880F991FFC01E255FF4FA59199
:1006B000B4918C559F4FFC01C591D4919FB76111A6
:1006C00008C0F8948C91209582238C938881822392
:1006D0000AC0623051F4F8948C91322F3095832304
:1006E0008C938881822B888304C0F8948C91822B10
:1006F0008C939FBFDF91CF9108950F931F93CF935A
:10070000DF931F92CDB7DEB7282F30E0F901E8590B
:10071000FF4F8491F901E458FF4F1491F901E0571C
:10072000FF4F04910023C9F0882321F069830E94C0
:100730001B036981E02FF0E0EE0FFF1FEC55FF4F28
:10074000A591B4919FB7F8948C91611103C0109555
:10075000812301C0812B8C939FBF0F90DF91CF919C
:100760001F910F9108951F920F920FB60F921124AF
:100770002F938F939F93EF93FF93E0910502F09156
:1007800006028081E0910B02F0910C0282FD12C002
:10079000908180910E028F5F8F7320910F028217DC
:1007A00051F0E0910E02F0E0EB50FE4F958F8093F8
:1007B0000E0201C08081FF91EF919F918F912F9147
:1007C0000F900FBE0F901F9018951F920F920FB6AB
:1007D0000F9211242F933F934F935F936F937F93C7
:1007E0008F939F93AF93BF93EF93FF9385EF91E028
:1007F0000E941006FF91EF91BF91AF919F918F9151
:100800007F916F915F914F913F912F910F900FBE0C
:100810000F901F90189585EF91E00E94D50521E07B
:10082000892B09F420E0822F08951092F80110928C
:10083000F70188EE93E0A0E0B0E08093F901909397
:10084000FA01A093FB01B093FC0185E291E0909343
:10085000F6018093F50185EC90E09093020280937D
:10086000010284EC90E0909304028093030280ECF8
:1008700090E0909306028093050281EC90E09093C3
:1008800008028093070282EC90E090930A02809322
:10089000090286EC90E090930C0280930B02109278
:1008A0000E0210920F02109210021092110208957F
:1008B000CF92DF92EF92FF920F931F93CF93DF932C
:1008C0007C016A01EB0100E010E00C151D0571F0E0
:1008D0006991D701ED91FC910190F081E02DC70164
:1008E0000995892B19F00F5F1F4FEFCFC801DF91DA
:1008F000CF911F910F91FF90EF90DF90CF900895CF
:100900006115710581F0DB010D900020E9F7AD0163
:1009100041505109461B570BDC01ED91FC910280BF
:10092000F381E02D099480E090E008950C94800418
:10093000DC01ED91FC910190F081E02D09948F9202
:100940009F92AF92BF92DF92EF92FF920F931F930D
:10095000CF93DF93CDB7DEB7A1970FB6F894DEBF84
:100960000FBECDBF7C01F42FD52ECB0119A22230B2
:1009700008F42AE08E010F5D1F4F822E912CA12CCE
:10098000B12C6F2F7D2DA50194010E94B806F22F86
:10099000D32ECA01015011096A3014F4E0E301C0FA
:1009A000E7E3E60FD801EC93232B242B252B49F703
:1009B000B801C7010E948004A1960FB6F894DEBF6B
:1009C0000FBECDBFDF91CF911F910F91FF90EF90A0
:1009D000DF90BF90AF909F908F900895CF92DF925D
:1009E000EF92FF920F931F93CF93DF93EC016A0175
:1009F0007B012115310579F4E881F9810190F081BD
:100A0000E02D642FDF91CF911F910F91FF90EF9018
:100A1000DF90CF9009942A303105E9F477FF1AC0AE
:100A20006DE20E9498048C0144275527BA014C19A5
:100A30005D096E097F092AE0CE010E949F04800FA4
:100A4000911FDF91CF911F910F91FF90EF90DF9059
:100A5000CF9008952AE0B701A601CE01DF91CF9192
:100A60001F910F91FF90EF90DF90CF900C949F0417
:100A70009A01AB01662757FD6095762F0C94EE0422
:100A800008950E949A050E9440050E949A00C2E0C3
:100A9000D6E00E94AC002097E1F30E940206F9CF55
:100AA0001F920F920FB60F9211242F933F938F93A3
:100AB0009F93AF93BF938091930290919402A091E2
:100AC0009502B09196023091920223E0230F2D37C8
:100AD00020F40196A11DB11D05C026E8230F029642
:100AE000A11DB11D209392028093930290939402D2
:100AF000A0939502B09396028091970290919802EC
:100B0000A0919902B0919A020196A11DB11D809306
:100B1000970290939802A0939902B0939A02BF9182
:100B2000AF919F918F913F912F910F900FBE0F909A
:100B30001F901895789484B5826084BD84B58160D7
:100B400084BD85B5826085BD85B5816085BDEEE6D5
:100B5000F0E0808181608083E1E8F0E010828081B4
:100B600082608083808181608083E0E8F0E0808122
:100B700081608083E1EBF0E0808184608083E0EB42
:100B8000F0E0808181608083EAE7F0E0808184602A
:100B90008083808182608083808181608083808186
:100BA000806880831092C1000895FC01818D228DA0
:100BB00090E0805C9F4F821B91098F739927089565
:100BC000FC01918D828D981731F0828DE80FF11D17
:100BD000858D90E008958FEF9FEF0895FC01918D32
:100BE000828D981761F0828DDF01A80FB11D5D968F
:100BF0008C91928D9F5F9F73928F90E008958FEFFD
:100C00009FEF08958BE094E0892B49F080E090E01D
:100C1000892B29F00E940B0481110C940000089587
:100C2000FC01848DDF01A80FB11DA35ABF4F2C9189
:100C3000848D90E001968F739927848FA689B78958
:100C40002C93A089B1898C9180648C93938D848D31
:100C5000981306C00288F389E02D80818F7D808300
:100C60000895CF93DF93EC01888D8823C9F0EA893A
:100C7000FB89808185FD05C0A889B9898C9186FD95
:100C80000FC00FB607FCF5CF808185FFF2CFA88992
:100C9000B9898C9185FFEDCFCE010E941006E7CF78
:100CA000DF91CF910895CF92DF92FF920F931F9320
:100CB000CF93DF931F92CDB7DEB76C0181E0D601F1
:100CC00058968C9358975B969C915B975C968C9109
:100CD0005C97981307C05096ED91FC9151978081D5
:100CE00085FD2EC0F601038D10E00F5F1F4F0F73BF
:100CF0001127F02EF601848DF81211C00FB607FCF3
:100D0000F9CFD6015096ED91FC915197808185FFE6
:100D1000F1CFC60169830E9410066981EBCF838DF4
:100D2000E80FF11DE35AFF4F6083D6015B960C93E9
:100D30005B975296ED91FC915397808180620CC035
:100D4000D6015696ED91FC91579760835096ED91A0
:100D5000FC91519780818064808381E090E00F90C6
:100D6000DF91CF911F910F91FF90DF90CF90089569
:100D7000A1E21A2EAA1BBB1BFD010DC0AA1FBB1F9F
:100D8000EE1FFF1FA217B307E407F50720F0A21B11
:100D9000B30BE40BF50B661F771F881F991F1A947E
:100DA00069F760957095809590959B01AC01BD01A8
:100DB000CF010895EE0FFF1F0590F491E02D0994E7
:040DC000F894FFCFD5
:100DC40042797465732052656365697665643A2077
:100DD400000000000034010701AD00B500C800D7D1
:100DE400000000000053065804D505EE05E0053167
:020DF4000600F7
:00000001FF
